{
  "contractName": "Uniswap",
  "abi": [
    {
      "constant": true,
      "inputs": [
        {
          "internalType": "address",
          "name": "",
          "type": "address"
        }
      ],
      "name": "balances",
      "outputs": [
        {
          "internalType": "uint256",
          "name": "",
          "type": "uint256"
        }
      ],
      "payable": false,
      "stateMutability": "view",
      "type": "function"
    },
    {
      "constant": true,
      "inputs": [],
      "name": "mBatToken",
      "outputs": [
        {
          "internalType": "contract IERC20",
          "name": "",
          "type": "address"
        }
      ],
      "payable": false,
      "stateMutability": "view",
      "type": "function"
    },
    {
      "constant": true,
      "inputs": [],
      "name": "uniswapExchange",
      "outputs": [
        {
          "internalType": "contract UniswapExchangeInterface",
          "name": "",
          "type": "address"
        }
      ],
      "payable": false,
      "stateMutability": "view",
      "type": "function"
    },
    {
      "constant": true,
      "inputs": [],
      "name": "uniswapFactory",
      "outputs": [
        {
          "internalType": "contract UniswapFactoryInterface",
          "name": "",
          "type": "address"
        }
      ],
      "payable": false,
      "stateMutability": "view",
      "type": "function"
    },
    {
      "constant": false,
      "inputs": [
        {
          "internalType": "address",
          "name": "uniswapFactoryAddress",
          "type": "address"
        }
      ],
      "name": "setup",
      "outputs": [],
      "payable": false,
      "stateMutability": "nonpayable",
      "type": "function"
    },
    {
      "constant": false,
      "inputs": [
        {
          "internalType": "address",
          "name": "token",
          "type": "address"
        }
      ],
      "name": "createExchange",
      "outputs": [],
      "payable": false,
      "stateMutability": "nonpayable",
      "type": "function"
    },
    {
      "constant": true,
      "inputs": [
        {
          "internalType": "address",
          "name": "user",
          "type": "address"
        }
      ],
      "name": "balanceOf",
      "outputs": [
        {
          "internalType": "uint256",
          "name": "",
          "type": "uint256"
        }
      ],
      "payable": false,
      "stateMutability": "view",
      "type": "function"
    },
    {
      "constant": false,
      "inputs": [],
      "name": "buy",
      "outputs": [],
      "payable": true,
      "stateMutability": "payable",
      "type": "function"
    },
    {
      "constant": false,
      "inputs": [
        {
          "internalType": "uint256",
          "name": "amount",
          "type": "uint256"
        }
      ],
      "name": "sell",
      "outputs": [],
      "payable": true,
      "stateMutability": "payable",
      "type": "function"
    },
    {
      "constant": false,
      "inputs": [
        {
          "internalType": "address",
          "name": "tokenAddress",
          "type": "address"
        }
      ],
      "name": "addLiquidity",
      "outputs": [],
      "payable": true,
      "stateMutability": "payable",
      "type": "function"
    }
  ],
  "bytecode": "0x608060405234801561001057600080fd5b50611029806100206000396000f3fe6080604052600436106100915760003560e01c806370a082311161005957806370a082311461024b5780638bdb2afa146102b0578063a6f2ae3a14610307578063e3412e3d14610311578063e4849b321461035557610091565b80631648f38e146100965780631e524401146100e757806327e235e31461013e57806362b856b5146101a357806366d38203146101fa575b600080fd5b3480156100a257600080fd5b506100e5600480360360208110156100b957600080fd5b81019080803573ffffffffffffffffffffffffffffffffffffffff169060200190929190505050610383565b005b3480156100f357600080fd5b506100fc6105be565b604051808273ffffffffffffffffffffffffffffffffffffffff1673ffffffffffffffffffffffffffffffffffffffff16815260200191505060405180910390f35b34801561014a57600080fd5b5061018d6004803603602081101561016157600080fd5b81019080803573ffffffffffffffffffffffffffffffffffffffff1690602001909291905050506105e4565b6040518082815260200191505060405180910390f35b3480156101af57600080fd5b506101b86105fc565b604051808273ffffffffffffffffffffffffffffffffffffffff1673ffffffffffffffffffffffffffffffffffffffff16815260200191505060405180910390f35b34801561020657600080fd5b506102496004803603602081101561021d57600080fd5b81019080803573ffffffffffffffffffffffffffffffffffffffff169060200190929190505050610622565b005b34801561025757600080fd5b5061029a6004803603602081101561026e57600080fd5b81019080803573ffffffffffffffffffffffffffffffffffffffff169060200190929190505050610741565b6040518082815260200191505060405180910390f35b3480156102bc57600080fd5b506102c5610824565b604051808273ffffffffffffffffffffffffffffffffffffffff1673ffffffffffffffffffffffffffffffffffffffff16815260200191505060405180910390f35b61030f61084a565b005b6103536004803603602081101561032757600080fd5b81019080803573ffffffffffffffffffffffffffffffffffffffff169060200190929190505050610a3c565b005b6103816004803603602081101561036b57600080fd5b8101908080359060200190929190505050610ead565b005b80600360006101000a81548173ffffffffffffffffffffffffffffffffffffffff021916908373ffffffffffffffffffffffffffffffffffffffff160217905550600160009054906101000a900473ffffffffffffffffffffffffffffffffffffffff1673ffffffffffffffffffffffffffffffffffffffff16631648f38e826040518263ffffffff1660e01b8152600401808273ffffffffffffffffffffffffffffffffffffffff1673ffffffffffffffffffffffffffffffffffffffff168152602001915050602060405180830381600087803b15801561046557600080fd5b505af1158015610479573d6000803e3d6000fd5b505050506040513d602081101561048f57600080fd5b810190808051906020019092919050505050600160009054906101000a900473ffffffffffffffffffffffffffffffffffffffff1673ffffffffffffffffffffffffffffffffffffffff166306f2bf62826040518263ffffffff1660e01b8152600401808273ffffffffffffffffffffffffffffffffffffffff1673ffffffffffffffffffffffffffffffffffffffff16815260200191505060206040518083038186803b15801561054057600080fd5b505afa158015610554573d6000803e3d6000fd5b505050506040513d602081101561056a57600080fd5b8101908080519060200190929190505050600260006101000a81548173ffffffffffffffffffffffffffffffffffffffff021916908373ffffffffffffffffffffffffffffffffffffffff16021790555050565b600360009054906101000a900473ffffffffffffffffffffffffffffffffffffffff1681565b60006020528060005260406000206000915090505481565b600260009054906101000a900473ffffffffffffffffffffffffffffffffffffffff1681565b80600160006101000a81548173ffffffffffffffffffffffffffffffffffffffff021916908373ffffffffffffffffffffffffffffffffffffffff160217905550600160009054906101000a900473ffffffffffffffffffffffffffffffffffffffff1673ffffffffffffffffffffffffffffffffffffffff1663538a3f0e600160009054906101000a900473ffffffffffffffffffffffffffffffffffffffff166040518263ffffffff1660e01b8152600401808273ffffffffffffffffffffffffffffffffffffffff1673ffffffffffffffffffffffffffffffffffffffff168152602001915050600060405180830381600087803b15801561072657600080fd5b505af115801561073a573d6000803e3d6000fd5b5050505050565b6000600360009054906101000a900473ffffffffffffffffffffffffffffffffffffffff1673ffffffffffffffffffffffffffffffffffffffff166370a08231836040518263ffffffff1660e01b8152600401808273ffffffffffffffffffffffffffffffffffffffff1673ffffffffffffffffffffffffffffffffffffffff16815260200191505060206040518083038186803b1580156107e257600080fd5b505afa1580156107f6573d6000803e3d6000fd5b505050506040513d602081101561080c57600080fd5b81019080805190602001909291905050509050919050565b600160009054906101000a900473ffffffffffffffffffffffffffffffffffffffff1681565b6000600260009054906101000a900473ffffffffffffffffffffffffffffffffffffffff1673ffffffffffffffffffffffffffffffffffffffff1663cd7724c3346040518263ffffffff1660e01b81526004018082815260200191505060206040518083038186803b1580156108bf57600080fd5b505afa1580156108d3573d6000803e3d6000fd5b505050506040513d60208110156108e957600080fd5b81019080805190602001909291905050509050806000803373ffffffffffffffffffffffffffffffffffffffff1673ffffffffffffffffffffffffffffffffffffffff16815260200190815260200160002060008282540192505081905550600260009054906101000a900473ffffffffffffffffffffffffffffffffffffffff1673ffffffffffffffffffffffffffffffffffffffff1663ad65d76d348360784201336040518563ffffffff1660e01b8152600401808481526020018381526020018273ffffffffffffffffffffffffffffffffffffffff1673ffffffffffffffffffffffffffffffffffffffff16815260200193505050506020604051808303818588803b1580156109fc57600080fd5b505af1158015610a10573d6000803e3d6000fd5b50505050506040513d6020811015610a2757600080fd5b81019080805190602001909291905050505050565b600160009054906101000a900473ffffffffffffffffffffffffffffffffffffffff1673ffffffffffffffffffffffffffffffffffffffff166306f2bf62826040518263ffffffff1660e01b8152600401808273ffffffffffffffffffffffffffffffffffffffff1673ffffffffffffffffffffffffffffffffffffffff16815260200191505060206040518083038186803b158015610adb57600080fd5b505afa158015610aef573d6000803e3d6000fd5b505050506040513d6020811015610b0557600080fd5b8101908080519060200190929190505050600260006101000a81548173ffffffffffffffffffffffffffffffffffffffff021916908373ffffffffffffffffffffffffffffffffffffffff1602179055506000600260009054906101000a900473ffffffffffffffffffffffffffffffffffffffff1673ffffffffffffffffffffffffffffffffffffffff1663cd7724c3346040518263ffffffff1660e01b81526004018082815260200191505060206040518083038186803b158015610bcb57600080fd5b505afa158015610bdf573d6000803e3d6000fd5b505050506040513d6020811015610bf557600080fd5b810190808051906020019092919050505090508173ffffffffffffffffffffffffffffffffffffffff1663095ea7b3600260009054906101000a900473ffffffffffffffffffffffffffffffffffffffff16836040518363ffffffff1660e01b8152600401808373ffffffffffffffffffffffffffffffffffffffff1673ffffffffffffffffffffffffffffffffffffffff16815260200182815260200192505050602060405180830381600087803b158015610cb157600080fd5b505af1158015610cc5573d6000803e3d6000fd5b505050506040513d6020811015610cdb57600080fd5b8101908080519060200190929190505050508173ffffffffffffffffffffffffffffffffffffffff166323b872dd3330846040518463ffffffff1660e01b8152600401808473ffffffffffffffffffffffffffffffffffffffff1673ffffffffffffffffffffffffffffffffffffffff1681526020018373ffffffffffffffffffffffffffffffffffffffff1673ffffffffffffffffffffffffffffffffffffffff1681526020018281526020019350505050602060405180830381600087803b158015610da857600080fd5b505af1158015610dbc573d6000803e3d6000fd5b505050506040513d6020811015610dd257600080fd5b810190808051906020019092919050505050600260009054906101000a900473ffffffffffffffffffffffffffffffffffffffff1673ffffffffffffffffffffffffffffffffffffffff1663422f1043348384607842016040518563ffffffff1660e01b81526004018084815260200183815260200182815260200193505050506020604051808303818588803b158015610e6c57600080fd5b505af1158015610e80573d6000803e3d6000fd5b50505050506040513d6020811015610e9757600080fd5b8101908080519060200190929190505050505050565b806000803373ffffffffffffffffffffffffffffffffffffffff1673ffffffffffffffffffffffffffffffffffffffff16815260200190815260200160002060008282540392505081905550600260009054906101000a900473ffffffffffffffffffffffffffffffffffffffff1673ffffffffffffffffffffffffffffffffffffffff16637237e031828360784201336040518563ffffffff1660e01b8152600401808581526020018481526020018381526020018273ffffffffffffffffffffffffffffffffffffffff1673ffffffffffffffffffffffffffffffffffffffff168152602001945050505050602060405180830381600087803b158015610fb557600080fd5b505af1158015610fc9573d6000803e3d6000fd5b505050506040513d6020811015610fdf57600080fd5b8101908080519060200190929190505050505056fea265627a7a72315820f34a79e65714610524907c251fe0e2a15f591a95aa433d9314ae30391795924e64736f6c63430005100032",
  "source": "pragma solidity ^0.5.0;\n\nimport './IERC20.sol';\n\ncontract UniswapFactoryInterface {\n  event NewExchange(address indexed token, address indexed exchange);\n\n  function initializeFactory(address template) external;\n  function createExchange(address token) external returns (address);\n  function getExchange(address token) external view returns (address payable);\n  function getToken(address token) external view returns (address);\n  function getTokenWihId(uint256 token_id) external view returns (address);\n}\n\ncontract UniswapExchangeInterface {\n  event TokenPurchase(address indexed buyer, uint256 indexed eth_sold, uint256 indexed tokens_bought);\n  event EthPurchase(address indexed buyer, uint256 indexed tokens_sold, uint256 indexed eth_bought);\n  event AddLiquidity(address indexed provider, uint256 indexed eth_amount, uint256 indexed token_amount);\n  event RemoveLiquidity(address indexed provider, uint256 indexed eth_amount, uint256 indexed token_amount);\n  function () external payable;\n  function getInputPrice(uint256 input_amount, uint256 input_reserve, uint256 output_reserve) external view returns (uint256);\n  function getOutputPrice(uint256 output_amount, uint256 input_reserve, uint256 output_reserve) external view returns (uint256);\n  function ethToTokenSwapInput(uint256 min_tokens, uint256 deadline) external payable returns (uint256);\n  function ethToTokenTransferInput(uint256 min_tokens, uint256 deadline, address recipient) external payable returns(uint256);\n  function ethToTokenSwapOutput(uint256 tokens_bought, uint256 deadline) external payable returns(uint256);\n  function ethToTokenTransferOutput(uint256 tokens_bought, uint256 deadline, address recipient) external payable returns (uint256);\n  function tokenToEthSwapInput(uint256 tokens_sold, uint256 min_eth, uint256 deadline) external returns (uint256);\n  function tokenToEthTransferInput(uint256 tokens_sold, uint256 min_eth, uint256 deadline, address recipient) external returns (uint256);\n  function tokenToEthSwapOutput(uint256 eth_bought, uint256 max_tokens, uint256 deadline) external returns (uint256);\n  function tokenToEthTransferOutput(uint256 eth_bought, uint256 max_tokens, uint256 deadline, address recipient) external returns (uint256);\n  function tokenToTokenSwapInput(\n    uint256 tokens_sold, \n    uint256 min_tokens_bought, \n    uint256 min_eth_bought, \n    uint256 deadline, \n    address token_addr) \n    external returns (uint256);\n  function tokenToTokenTransferInput(\n    uint256 tokens_sold, \n    uint256 min_tokens_bought, \n    uint256 min_eth_bought, \n    uint256 deadline, \n    address recipient, \n    address token_addr) \n    external returns (uint256);\n  function tokenToTokenSwapOutput(\n    uint256 tokens_bought, \n    uint256 max_tokens_sold, \n    uint256 max_eth_sold, \n    uint256 deadline, \n    address token_addr) \n    external returns (uint256);\n  function tokenToTokenTransferOutput(\n    uint256 tokens_bought, \n    uint256 max_tokens_sold, \n    uint256 max_eth_sold, \n    uint256 deadline, \n    address recipient, \n    address token_addr) \n    external returns (uint256);\n  function tokenToExchangeSwapInput(\n    uint256 tokens_sold, \n    uint256 min_tokens_bought, \n    uint256 min_eth_bought, \n    uint256 deadline, \n    address exchange_addr) \n    external returns (uint256);\n  function tokenToExchangeTransferInput(\n    uint256 tokens_sold, \n    uint256 min_tokens_bought, \n    uint256 min_eth_bought, \n    uint256 deadline, \n    address recipient, \n    address exchange_addr) \n    external returns (uint256);\n  function tokenToExchangeSwapOutput(\n    uint256 tokens_bought, \n    uint256 max_tokens_sold, \n    uint256 max_eth_sold, \n    uint256 deadline, \n    address exchange_addr) \n    external returns (uint256);\n  function tokenToExchangeTransferOutput(\n    uint256 tokens_bought, \n    uint256 max_tokens_sold, \n    uint256 max_eth_sold, \n    uint256 deadline, \n    address recipient, \n    address exchange_addr) \n    external returns (uint256);\n  function getEthToTokenInputPrice(uint256 eth_sold) external view returns (uint256);\n  function getEthToTokenOutputPrice(uint256 tokens_bought) external view returns (uint256);\n  function getTokenToEthInputPrice(uint256 tokens_sold) external view returns (uint256);\n  function getTokenToEthOutputPrice(uint256 eth_bought) external view returns (uint256);\n  function tokenAddress() external view returns (address);\n  function factoryAddress() external view returns (address);\n  function addLiquidity(uint256 min_liquidity, uint256 max_tokens, uint256 deadline) external payable returns (uint256);\n  function removeLiquidity(uint256 amount, uint256 min_eth, uint256 min_tokens, uint256 deadline) external returns (uint256, uint256);\n}\n\ncontract Uniswap {\n    \n    mapping(address => uint256) public balances;\n    UniswapFactoryInterface public uniswapFactory;\n    UniswapExchangeInterface public uniswapExchange;\n    IERC20 public mBatToken;\n    \n    function setup(address uniswapFactoryAddress) external {\n        uniswapFactory = UniswapFactoryInterface(uniswapFactoryAddress);\n        uniswapFactory.initializeFactory(address(uniswapFactory));\n    }\n    \n    function createExchange(address token) external {\n        mBatToken = IERC20(token);\n        uniswapFactory.createExchange(token);\n        uniswapExchange = UniswapExchangeInterface(uniswapFactory.getExchange(token));\n    }\n    \n    function balanceOf(address user) external view returns(uint) {\n        return mBatToken.balanceOf(user);\n    }\n    \n    function buy() external payable {\n        uint tokenAmount = uniswapExchange.getEthToTokenInputPrice(msg.value);\n        balances[msg.sender] += tokenAmount;\n        uniswapExchange.ethToTokenTransferInput.value(msg.value)(\n            tokenAmount,\n            now + 120,\n            msg.sender\n            );\n    }\n    \n    function sell(uint amount) external payable {\n        balances[msg.sender] -= amount;\n        uniswapExchange.tokenToEthTransferInput(\n            amount,\n            amount,\n            now + 120,\n            msg.sender\n            );\n    }\n    \n    function addLiquidity(address tokenAddress) external payable {\n        uniswapExchange = UniswapExchangeInterface(uniswapFactory.getExchange(tokenAddress));\n        uint tokenAmount = uniswapExchange.getEthToTokenInputPrice(msg.value);\n        IERC20(tokenAddress).approve(address(uniswapExchange), tokenAmount);\n        IERC20(tokenAddress).transferFrom(msg.sender, address(this), tokenAmount);\n        uniswapExchange.addLiquidity.value(msg.value)(\n            tokenAmount,\n            tokenAmount,\n            now + 120\n            );\n    }\n    \n}\n",
  "sourcePath": "/home/ankit/Downloads/Uniswap/src/contracts/Uniswap.sol",
  "compiler": {
    "name": "solc",
    "version": "0.5.16+commit.9c3226ce.Emscripten.clang"
  },
  "schemaVersion": "3.0.23",
  "updatedAt": "2020-04-12T17:38:45.150Z",
  "devdoc": {
    "methods": {}
  },
  "userdoc": {
    "methods": {}
  }
}